:1000000012C02CC02BC02AC054C028C027C026C094
:1000100025C024C023C022C021C020C01FC01EC0D4
:100020001DC01CC01BC011241FBECFE5D4E0DEBF25
:10003000CDBF10E0A0E6B0E0E0E5F6E102C005903B
:100040000D92A23BB107D9F710E0A2EBB0E001C0DE
:100050001D92A43EB107E1F7DED2F8CAD1CF8136B6
:1000600010F0875503C0813418F087538F700895BE
:100070008F70089598B321E030E002C0220F331F43
:100080008A95E2F7922B98BB81EB84BD89B7806497
:1000900089BF85B5876085BD089598B321E030E0BC
:1000A00002C0220F331F8A95E2F72095292328BB2F
:1000B00008951F920F920FB60F9211248F9315BCC3
:1000C00089B78F7B89BFC098C1988F910F900FBE61
:1000D0000F901F901895AF92BF92CF92DF92EF9240
:1000E000FF920F931F93CF93DF936C01EB01042FCB
:1000F0006115710569F0442359F05B017B0110E043
:100100000FC0F70181917F0190E092DA892B39F4D9
:10011000F601108211821282138280E043C01F5FB9
:10012000101778F38881813610F0875503C0813429
:1001300008F087538F7090E0A0E0B0E0F601808374
:100140009183A283B3830150AE01400F511D26C09D
:10015000F60180819181A281B38124E0880F991FEB
:10016000AA1FBB1F2A95D1F780839183A283B383F3
:10017000F5012181213610F0275503C0213408F004
:1001800027532F70820F911DA11DB11DF601808391
:100190009183A283B3830894A11CB11CA416B50655
:1001A000B9F681E0DF91CF911F910F91FF90EF9011
:1001B000DF90CF90BF90AF9008950F931F93CF9390
:1001C000DF93C3EBD0E0FE0101900020E9F7319707
:1001D000EC1BFD0B0E2F1091B4008091B3008636FE
:1001E00009F45CC0873630F4813659F0833609F063
:1001F0000AC22BC08D3609F4E2C0823709F003C26F
:10020000A8C1E23009F0FFC11333D9F0143330F440
:10021000113399F0123309F0F6C111C0133751F0C0
:10022000163721F0143309F0EEC10DC081E0B5D9C5
:1002300082E012C183B38F730FC19BD2E7C19DD2FD
:10024000E5C19FD2E3C1A1D2E1C1123629F1133633
:1002500030F4123561F0133509F0D5C106C01237FC
:1002600041F0133709F0CFC115C032D2CFC147D208
:10027000CDC1EA3009F0C7C183ED90E0BE016E5FE9
:100280007F4F48E028DF882309F4BDC183ED90E06B
:10029000A7D4BCC153D2BAC121D4B8C1143609F411
:1002A0003FC0153638F4153409F457C0163509F037
:1002B000AAC10CC0163721F0173709F0A4C16CC0D1
:1002C000E23009F0A0C18091B200C6C0E43009F06C
:1002D0009AC183ED90E0BE016E5F7F4F42E0FBDE8E
:1002E000882309F490C120E08091D3009091D4003C
:1002F000A091D500B091D6000097A105B10509F0F5
:1003000021E02093B200E199FECF80E090E09FBB16
:100310008EBB2DBB0FB6F894E29AE19A0FBE75C161
:10032000E23109F070C183ED90E0BE016E5F7F4F56
:1003300048E0D1DE882309F466C187ED90E0BE0174
:10034000665F7F4F48E0C7DE882309F45CC183ED18
:1003500090E067ED70E074D859C1E83109F053C1FD
:1003600083ED90E0BE01685F7F4F48E0B4DE8823F4
:1003700009F449C187ED90E0BE01605F7F4F48E01E
:10038000AADE882309F43FC1CE01029663ED70E036
:1003900047ED50E04FD73AC1E03109F034C183ED69
:1003A00090E0BE01685F7F4F48E095DE882309F446
:1003B0002AC1CE01029663ED70E06DD727C11636D3
:1003C00009F493C0163409F4A1C01D3409F4B1C076
:1003D0001A3709F455C0183709F459C0133609F40F
:1003E00060C0EA3008F40FC183ED90E065EB70E087
:1003F00048E071DE882309F406C10A3051F0402F2D
:100400004A5087ED90E06DEB70E065DE882309F4DB
:10041000FAC0173509F455C0183550F41C3409F4E6
:100420005BC01D3409F485C0123409F0ECC040C033
:100430001C36E9F0173791F0123609F0E4C00A30A3
:1004400009F0E1C08BED90E063ED70E0BFD48D303A
:1004500009F0D9C08091DB00A0D8D7C00A3009F0DC
:10046000D2C08BED90E063ED70E0A3D416C00A30EB
:1004700009F0C9C08BED90E063ED70E08DD4A4C0AD
:10048000E23009F0C0C08BED90E078D4E0CFE230EC
:1004900009F0B9C08BED90E063D48D3009F0B3C0A2
:1004A0009BC0E23009F0AFC08BED90E04BD48CC024
:1004B0000C3009F0A8C083ED90E06091D7002AD4F9
:1004C000A0C00E3009F09FC06091D7007091D80095
:1004D00083ED90E005D495C0023109F094C083ED1E
:1004E00090E067ED70E0EFD38CC0E43009F08BC092
:1004F00087ED90E0BE016E5F7F4F42E0ECDD882328
:1005000009F481C08091D700C4D380C0E63009F0DF
:100510007AC087ED90E0BE016E5F7F4F44E0DBDD87
:10052000882309F470C08091D7009091D80095D3AA
:100530006DC00A3009F067C087ED90E065EB70E0B0
:1005400048E0C9DD882309F45EC087ED90E076D3EA
:100550005DC0E43008F457C083ED90E0BE016D5FEC
:100560007F4F41E0B8DD882309F44DC0043051F0DD
:1005700087ED90E0BE016C5F7F4F48E0ACDD8823E3
:1005800009F441C0173589F0183518F41134D9F53C
:1005900031C0113691F01237B1F50430A1F58BED71
:1005A00090E06091D3003BD30FC00C3061F5809197
:1005B000D30067ED70E003D324C0043021F58BED48
:1005C00090E06091D300ECD28D30E9F48091DE00B0
:1005D000E4D78091DD00E1D78091DB009091DC00D1
:1005E000A091DD00B091DE00892F9A2FAB2FBB27A1
:1005F000D4D730CF0C3039F48091D30067ED70E060
:10060000BED28D3011F087E001C08DE0DF91CF9137
:100610001F910F910895CF92DF92EF92FF920F9367
:100620001F93DF93CF930F92CDB7DEB7000000008A
:1006300000000000000087B3836087BB87B380633E
:1006400087BB7894E199FECF80E090E09FBB8EBBA2
:10065000E09A8DB31092B200882319F081E0809364
:10066000B20082D789838823E1F71092B30043EB6D
:10067000C42E40E0D42E7E010894E11CF11C01EB55
:1006800073D789838823E1F38D3091F496DD182F99
:1006900077D71092B3001D3011F4C19A01C0C09AEF
:1006A00004BD89B7806489BF85B5876085BDE8CF03
:1006B000F60101900020E9F73197E35BF0407F9766
:1006C000F8F683EB90E0B70141E050E093D7D8CF44
:1006D0009B9902C087E00895A59AAD9884EF91E0B8
:1006E00020E931E0F9013197F1F70197D9F79C9BA7
:1006F00002C08DE00895A598AD9887E008959B9B72
:100700001BC084B3816284BBAD9AA898A89A84EF79
:1007100091E020E931E0F9013197F1F70197D9F73C
:1007200084B38E7D84BB85B38E7D85BB989B04C0CE
:100730009C9902C08DE0089587E008959B9902C0BE
:1007400087E0089584B3816284BBAD98A898A89A85
:1007500084EF91E020E931E0F9013197F1F7019759
:10076000D9F79C9B02C08DE00895A598AD9887E0CD
:100770000895A59AAD988DE00895A59AAD9A8DE05B
:100780000895A09AA8988DE00895A09AA89A8DE05F
:100790000895EF92FF920F931F9324B3246224BB1A
:1007A0009C0140E050E080E290E0861B910904C08B
:1007B000220F331F441F551F8A95D2F719C07901A4
:1007C0008A01EE0CFF1C001F111F999B08C081E0DD
:1007D00090E0A0E0B0E0E82AF92A0A2B1B2B85B3B1
:1007E0008B7D85BB57FDAA9AAD9A6150A8019701F0
:1007F000662329F72093DF003093E0004093E10067
:100800005093E200AA98A2981F910F91FF90EF9049
:100810000895DF92EF92FF920F931F93CF93DF9390
:10082000EC01F62E972F8A01862F61E1B2DF8091CD
:10083000DF009091E000A091E100B091E2008150D2
:100840009040A140B04008F094C0209749F18881C1
:100850009981AA81BB81CD01AA27BB2761E199DFDC
:100860008091DF009091E000A091E100B091E20062
:1008700081509040A140B04008F07BC088819981B0
:1008800061E187DF8091DF009091E000A091E100BD
:10089000B091E20081509040A140B04008F069C0A2
:1008A000F7FE18C0F80180819181A281B381CD014A
:1008B000AA27BB2761E16DDF8091DF009091E00006
:1008C000A091E100B091E20081509040A140B04081
:1008D00008F04FC0F8018081918161E15ADF809179
:1008E000DF009091E000A091E100B091E200815022
:1008F0009040A140B04008F03CC098E0D92E80E084
:1009000090E061E146DFE090DF00F090E0000091D0
:10091000E1001091E20020E0E21620E0F20621E082
:10092000020720E0120711F4DA9449F780E090E022
:1009300061E12FDF3FEFE3163FEFF30630E00307FF
:1009400030E0130719F080E090E014C020E08091BF
:10095000DF009091E000A091E100B091E2008050B2
:100960009040A140B04008F021E081E02827822F8C
:1009700001C080E0DF91CF911F910F91FF90EF9028
:10098000DF900895DF92EF92FF920F931F93CF9322
:10099000DF937C01162F972FEA01F7011082118255
:1009A00012821382862F61E1F4DE8091DF00909144
:1009B000E000A091E100B091E20080509040A140A1
:1009C000B04008F081C0209729F400E0E0E8DE2E76
:1009D000D1225AC088819981AA81BB81CD01AA27E1
:1009E000BB2761E1D6DE8091DF009091E000A0910D
:1009F000E100B091E20081509040A140B04008F089
:100A000063C08881998161E1C4DE8091DF009091AB
:100A1000E000A091E100B091E20081509040A1403F
:100A2000B04098F251C018E080E090E061E1B1DEA2
:100A30002091DF003091E0004091E1005091E20010
:100A4000203080E0380781E0480780E0580719F43B
:100A5000115051F739C02030E0E03E07E1E04E0789
:100A6000E0E05E0788F5F70180819181A281B38182
:100A7000DC0199278827282B392B4A2B5B2B2083D5
:100A80003183428353830F5FDD2019F421E030E08E
:100A900002C022E030E0802F90E0821793071CF222
:100AA00080E090E061E175DE20E08091DF009091D0
:100AB000E000A091E100B091E20080509040A140A0
:100AC000B04018F421E001C020E0822FDF91CF91E7
:100AD0001F910F91FF90EF90DF9008959B9902C0B6
:100AE00087E0089580E09CE061E153DEA59AAD982F
:100AF00084EF91E020E931E0F9013197F1F70197B6
:100B0000D9F79C9B02C08DE00895A598AD9887E029
:100B1000089580E090E061E13CDE80E090E061E1FA
:100B200038DE80E090E061E134DE80E090E061E179
:100B300003C080E090E061E02CDE8091DF009091C6
:100B4000E000A091E100B091E2000097A105B1059D
:100B500081F704C080E090E061E01BDE8091DF005F
:100B60009091E000A091E100B091E2000097A10512
:100B7000B10581F380E090E06FE00BDE0895AB01FA
:100B80009C9B0BC0682F70E060587F4D80E090E028
:100B900040DE882311F08DE00895BBDF87E00895E3
:100BA0009C9B0AC070E060587E4D40E050E0EADE59
:100BB000882311F08DE00895ACDF87E00895AB0144
:100BC0009C9B0BC0682F70E060587B4D80E090E0EC
:100BD00020DE882311F08DE008959BDF87E00895E3
:100BE000CF93DF93EC0174DD8D30A9F48881998176
:100BF000AA81BB810097A105B10529F080E0BE0163
:100C0000DEDF8D3041F480E09CE061E1C2DDA5983B
:100C1000AD988DE001C087E0DF91CF9108959C9B56
:100C20000AC070E060587A4D40E050E0ABDE8823A7
:100C300011F08DE008956DDF87E00895AC019C9B75
:100C400009C080E090E060E87CE1E3DD882311F0FA
:100C50008DE008955EDF87E00895DF93CF9300D0A5
:100C6000CDB7DEB79A8389839C9B0CC080E090E06F
:100C700060E47CE1AE014F5F5F4FCBDD882311F074
:100C80008DE002C046DF87E00F900F90CF91DF919B
:100C90000895DF93CF930F92CDB7DEB789839C9BE6
:100CA0000CC080E090E060E07CE1AE014F5F5F4F00
:100CB000B0DD882311F08DE002C02BDF87E00F90BC
:100CC000CF91DF910895AB019C9B07C060E878E16C
:100CD000A0DD882311F08DE008951BDF87E00895E3
:100CE000DF93CF9300D0CDB7DEB77A8369839C9B27
:100CF0000AC060E478E1AE014F5F5F4F8ADD882370
:100D000011F08DE002C005DF87E00F900F90CF91CA
:100D1000DF910895DF93CF930F92CDB7DEB769834C
:100D20009C9B0AC060E078E1AE014F5F5F4F71DDD0
:100D3000882311F08DE002C0ECDE87E00F90CF91A8
:100D4000DF9108959C9B09C060E87DE140E050E0A0
:100D500019DE882311F08DE00895DBDE87E0089529
:100D60009C9B09C060E47DE140E050E00BDE8823FD
:100D700011F08DE00895CDDE87E008959C9B09C0B9
:100D800060E07DE140E050E0FDDD882311F08DE082
:100D90000895BFDE87E00895AB019C9B07C060E823
:100DA00079E1F0DD882311F08DE00895B2DE87E06F
:100DB0000895AB019C9B07C060E479E1E3DD8823E3
:100DC00011F08DE00895A5DE87E00895AB019C9BAE
:100DD00007C060E079E1D6DD882311F08DE0089549
:100DE00098DE87E00895CF93DF93EC016FEF7FEFFC
:100DF00077DF8D3091F4CE016FEF7FEF71DF8D30B3
:100E000061F4CE0160E070E06BDF90E08D3009F0BE
:100E100091E081E09827892F02C080E090E0DF9187
:100E2000CF910895DF93CF9300D000D0CDB7DEB738
:100E30008EEF9FEFA0E0B0E089839A83AB83BC8301
:100E4000CE01019660EF70EF4BDF90E08D3009F43A
:100E500091E0892F0F900F900F900F90CF91DF911D
:100E600008958F929F92AF92BF92CF92DF92EF92AE
:100E7000FF920F931F93DF93CF9300D0CDB7DEB7D0
:100E80008C016B01009709F43FC0E090E300FF2460
:100E900095E3892E80E2982E5E010894A11CB11C76
:100EA0002FC0C80160E470E41BDF8D3069F5C80114
:100EB000B60116DF8D3041F5882D8A95F1F7EE20C9
:100EC00099F0C80160EC70EC0BDF8D30E9F4892DEE
:100ED0008A95F1F7C501B8016CDF8D3069F489811D
:100EE0009A818C159D0541F4C80160E070E0F8DE40
:100EF000882359F081E009C0C80175DF882321F0FB
:100F0000F39489E1F81669F680E00F900F90CF9185
:100F1000DF911F910F91FF90EF90DF90CF90BF90E6
:100F2000AF909F908F900895AF92BF92CF92DF9233
:100F3000EF92FF920F931F93DF93CF9300D0CDB723
:100F4000DEB76C017B010091E30018E05E010894BC
:100F5000A11CB11C2BC085E790E06AEA7AEAC0DEEA
:100F60008D3031F58BE790E065E575E5B9DE8D30C4
:100F7000F9F481E890E060EA70EAB2DE8D30C1F405
:100F8000C601B701ADDE8D3099F40023B1F0C50183
:100F9000B6010FDF8D3029F489819A818E159F0566
:100FA00061F080E090E03EDF882341F0115099F637
:100FB00080E090E037DF80E001C081E00F900F908B
:100FC000CF91DF911F910F91FF90EF90DF90CF9025
:100FD000BF90AF900895AF92BF92CF92DF92EF9201
:100FE000FF920F931F93DF93CF9300D000D000D0D8
:100FF000CDB7DEB780E090E015DF882309F45FC04D
:101000006BE8E62E60E0F62E00E010E0C801880FE5
:10101000991F800F911F880F991FF70160817181BF
:1010200089579F4F5DDE8D3009F045C00F5F1F4F20
:1010300086E090E0E80EF91E0630110539F780E1F0
:1010400097E220E931E0F9013197F1F70197D9F7FB
:101050001B821C821D821E8218E033E0A32EB12C5D
:10106000AC0EBD1E6E010894C11CD11C20E9E22EFD
:1010700021E0F22E1EC0C601B5019BDE8D3019F0B5
:1010800080E197E211C089819A818F5F9F4FC1F7FC
:101090008BEA90E060EF70EF23DE8D3089F780E01F
:1010A00090E0C0DE81E00BC0F7013197F1F70197C6
:1010B000D9F7115001F780E090E0B4DE80E0269689
:1010C0000FB6F894DEBF0FBECDBFCF91DF911F9159
:1010D0000F91FF90EF90DF90CF90BF90AF90089569
:1010E0009F92AF92BF92CF92DF92EF92FF920F93B7
:1010F0001F93DF93CF9300D000D000D0CDB7DEB7E1
:101100008C017B01009709F482C06115710509F417
:101110007EC069DE882309F47AC0F801808191815C
:10112000A281B3818B839C83AD83BE83F3E0CF2EFA
:10113000D12CCC0EDD1E16C0C60160E070E091DE41
:10114000882309F462C08B819C81AD81BE810296A7
:10115000A11DB11D8B839C83AD83BE838DE010D216
:1011600081E088D72B813C814D815E81F7018081B0
:101170009181A281B381281739074A075B07E0F202
:10118000F80180819181A281B3818B839C83AD839F
:10119000BE83EE24FF24E0E4AE2EECE9BE2E70E226
:1011A000972E6E010894C11CD11C27C0C80160E2B3
:1011B00070E296DD8D3049F5C80160E270E290DDA5
:1011C0008D3019F5C5010197F1F7C80160EA70EAA1
:1011D00087DD8D30D1F4892D8A95F1F7C601B801EC
:1011E000E8DD8D3091F489819A818F5F9F4F19F4EA
:1011F000C801F9DD0DC081E03DD70894E11CF11C68
:1012000028EEE21623E0F20689F6C801ECDD80E064
:1012100026960FB6F894DEBF0FBECDBFCF91DF91FB
:101220001F910F91FF90EF90DF90CF90BF90AF9004
:101230009F900895EF92FF920F931F93CF93DF93A8
:10124000EC018B017A0160E670E046E050E0E2D10B
:10125000009741F0CE0167E670E046E050E0DAD159
:10126000009711F4B8DE0BC0CE016EE670E046E0E8
:1012700050E0D0D1009729F4C801B70131DF8823AD
:1012800011F487E001C08DE0DF91CF911F910F91A4
:10129000FF90EF9008952F923F924F925F926F923E
:1012A0007F928F929F92AF92BF92CF92DF92EF92F6
:1012B000FF920F931F93DF93CF93CDB7DEB7609765
:1012C0000FB6F894DEBF0FBECDBF8C015B0160E6A8
:1012D00070E046E050E09ED10097D1F0C80167E68B
:1012E00070E046E050E096D1009791F0C8016EE6BC
:1012F00070E046E050E08ED1009709F07FC033EFF8
:10130000C32E36E0D32E21E3E22E27E0F22E08C0D2
:1013100092E1C92E97E0D92E84E9E82E87E0F82ED5
:10132000C501F6010995882309F468C0F50180819B
:101330009181A281B38189839A83AB83BC838DE041
:101340001FD109E0602E712C6C0E7D1E11E1212E43
:10135000312C2C0E3D1EB5E04B2E512C4C0E5D1E3B
:101360004E010894811C911C8301FED08823E9F36F
:1013700020163106C8F1F80180838D3009F458C079
:101380008B3111F411E031C00F5F1F4FEECF2D8173
:101390003E814F8158859A0144275527C401B901E0
:1013A000F7010995882301F189819A81AB81BC817C
:1013B0000296A11DB11D89839A83AB83BC836D8185
:1013C0007E81C401F7010995882371F089819A8192
:1013D000AB81BC810296A11DB11D89839A83AB8329
:1013E000BC8381E047D6C0CF10E0C501F601099566
:1013F000882321F0112311F08DE001C087E0609671
:101400000FB6F894DEBF0FBECDBFCF91DF911F9115
:101410000F91FF90EF90DF90CF90BF90AF909F9093
:101420008F907F906F905F904F903F902F90089596
:10143000C201B30148E04FD6882309F0A8CFD4CF2A
:10144000AF92BF92CF92DF92EF92FF920F931F93D2
:10145000DF93CF93CDB7DEB728970FB6F894DEBFF2
:101460000FBECDBF7C018B01FC0180819181A281E7
:10147000B38189839A83AB83BC8355E0C52ED12C7D
:10148000CC0EDD1E5E010894A11CB11C46C0298152
:101490003A814B815C81F70180819181A281B38186
:1014A00082179307A407B50718F4C6014BDC03C0E5
:1014B000C601B50171DC8D3009F042C088856DD060
:1014C0008F816BD08D819E81AF81B885892F9A2FB6
:1014D000AB2FBB2762D08D8160D0F80180819181D4
:1014E000A281B3810497A109B10929813A814B8175
:1014F0005C81281739074A075B0720F48DE040D04C
:1015000081E0B8D589819A81AB81BC810496A11D07
:10151000B11D89839A83AB83BC8329813A814B8136
:101520005C81F80180819181A281B38128173907FC
:101530004A075B0738F418D08B3109F0A8CF02C0F6
:1015400087E001C08DE028960FB6F894DEBF0FBE8D
:10155000CDBFCF91DF911F910F91FF90EF90DF9062
:10156000CF90BF90AF900895B29B02C080E00895E5
:10157000C49800000000000080B3C49A8F770895DB
:10158000982FB399FECF8FEF81BB92BBC59A000015
:10159000C598000011BA82BB0895282F82958F70DC
:1015A0008A3018F4982F905D02C0982F995CB399F7
:1015B000FECF8FEF81BB92BBC59A0000C59800009B
:1015C00011BA82BB822F90E08F7090702F700A97B3
:1015D0001CF4922F905D02C0922F995CB399FECFBC
:1015E0008FEF81BB92BBC59A0000C598000011BA6D
:1015F00082BB0895FB01DC010D900020E9F71197F3
:101600004150504028F0019000200D92C9F70895F4
:101610001C920895FB01DC014150504030F08D9147
:101620000190801919F40020B9F7881B990B0895CF
:10163000911109C080538A5028F0865C80628156DF
:101640008650B8F70895992788270895F894FFCF12
:101650003239663031300032396634303000323859
:101660006630313000AAAA0000AAAA5455000055DD
:1016700055AAAA0000A0A0AAAA0000AAAA54550030
:10168000005555AAAA00008080AAAA0000AAAA5460
:101690005500005555AAAA00001010FEFF0000F0EA
:0216A000F00058
:00000001FF
